:020000040800F2
:10000000F01F002045010008AD440008F13A000847
:1000100099420008470A00084D52000800000000FD
:100020000000000000000000000000008D4C0008EF
:10003000091100080000000007460008454D0008AF
:100040005F0100085F0100085F0100085F01000810
:100050005F0100085F0100085F0100085F01000800
:100060005F0100085F0100085F0100085F010008F0
:100070005F0100085F0100085F0100085F010008E0
:100080005F0100085F0100085F0100085F010008D0
:100090005F0100085F0100085F0100085F010008C0
:1000A0005F0100085F0100085F0100085F010008B0
:1000B000994D00085F0100085F0100085F0100081A
:1000C0005F0100085F0100085F0100085F01000890
:1000D0005F0100085F010008355200084152000826
:1000E0005F0100085F0100085F0100085F01000870
:1000F0005F0100085F0100085F0100085F01000860
:100100005F0100085F0100085F0100085F0100084F
:100110005F0100085F010008A54D00085F010008AD
:100120005F0100085F0100085F0100085F0100082F
:10013000DFF80CD000F04AFC00480047815D000861
:10014000F01F00200648804706480047FEE7FEE70C
:10015000FEE7FEE7FEE7FEE7FEE7FEE7FEE7FEE777
:10016000974D000831010008202A04DB203A21FACB
:1001700002F00021704721FA02F3D040C2F12002C0
:100180009140084319467047D2B201E000F8012BB4
:10019000491EFBD270470022F6E710B513460A4607
:1001A00004461946FFF7F0FF204610BDF0B480EA80
:1001B0000102D40F4200B2EB410F02D202460846C0
:1001C00011464A0042D0C30DDDB2C1F3C752AD1A89
:1001D000202D35DAC1F3160141F4000204B1524278
:1001E000C5F1200602FA06F12A411044B3EBD05FB4
:1001F00023D0C4B1012DA0EBC35009DCF0BC4FF0FB
:10020000004202EAC352DBB200F5000000F095BAEA
:10021000400000F1807000EBC350A0F1807040EA14
:10022000D170490009E0490841EAC071A0EBC35010
:1002300000F50000400800EBC350F0BC00F074BAB9
:100240006142012202EB4101001BF6E7F0BC70475E
:1002500081F00041AAE780F00040A7E780EA0102B0
:1002600010B502F00043400022D04A001FD0010E1A
:1002700001EB1261C0F35600C2F3560240F40000D5
:1002800042F40002A0FB022000047F39140400D0D5
:10029000401C50EA124001D44000491EC2B20C0674
:1002A00004EBD010401C4008802A02D003E000205C
:1002B00010BD20F00100002900DA0020184310BD15
:1002C00030B480EA010202F0004530F0004221F033
:1002D000004013D090B1C30DD40DC2F31601C0F38A
:1002E0001600E41A41F4000140F400027D3491420A
:1002F00001D3641C00E04900002C02DA30BC00206D
:1003000070474FF400000023914201D3891A034340
:1003100040084FEA4101F7D151B1914202D14FF06B
:10032000004105E002D24FF0010101E06FF0010150
:1003300003EBC450284430BC00F0F6B9420005D0AD
:10034000C0F3C7525242914201DC0020704700EBDB
:10035000C15070472DE9FE4F804681EA0300C00F6F
:100360000C46009021F0004123F00045B8EB02005C
:10037000A94105D24046214690461C460B460246FE
:1003800023F00040104347D0270DC7F30A00C3F302
:100390000A510290401A019040286BDAC3F313000F
:1003A00040F4801B0098924620B10023D2EB030A50
:1003B00063EB0B0B01985946C0F14002504600F028
:1003C00092F906460D4650465946019A00F09AF9B0
:1003D00010EB08006141002487EA115284EAE773B8
:1003E0001A4340D0009A62B3019A012A4FEA075299
:1003F00015DC001B61EB02014FF0004202EA0752DC
:10040000CDE90042001C41F5801132462B4600F038
:10041000EFF903B0BDE8F08F40462146F9E7001B35
:1004200061EB0201001C41F5801300185B412018AC
:10043000A2F5001747EB030140EAD570B6196D41EC
:1004400011E06D084FEA360645EAC0754FEA0752DB
:10045000001B61EB0201001C41F5801149084FEAC5
:1004600030000019514132462B4603B0BDE8F04F31
:1004700000F0AFB90098012240000023D0EB020247
:1004800063EBE073009821464FEAE074B8EB00009C
:1004900061EB0401E9E783F000435BE781F0004191
:1004A00058E72DE9FE4F81EA030404F0004421F0EF
:1004B000004100944FF0000B23F0004350EA010488
:1004C0005ED052EA03045BD0C3F30A54C1F30A5569
:1004D0002C44A4F2F3340194A0FB0254C1F31301A1
:1004E00041F48011C3F3130343F4801301FB02446E
:1004F00000FB034E840A970A44EA815447EA835773
:10050000A4FB076802958D0A05FB07854FEA932C2B
:1005100004FB0C542705029D4FEA065847EA16379C
:10052000B5EB08056EEB070C870E920E47EA8117B4
:1005300042EA8312A7FB0201B6EB0B0164EB000455
:100540002B0D43EA0C335E1844EB1C50DA4651463F
:10055000E7FB0201C5F313044FEA0B3343EA1453DC
:100560004FEA0432019C43EA0603A4F10C0402940E
:10057000009CCDE900B400F03BF903B0BDE8F08F7A
:1005800000200146F9E7C10F80EAE0700844CA077D
:100590009623002100F0D1B80EB540F2334102910C
:1005A0000021CDE900110A460B4600F021F903B005
:1005B00000BD00F0004220F00040C10DC0F3160065
:1005C00040F400007F2901DA00207047962903DCFF
:1005D000C1F19601C84001E096398840002AF4D064
:1005E0004042704720F00040C10DC0F3160040F4B7
:1005F00000007F2901DA00207047962903DCC1F151
:100600009601C840704796398840704701F0004312
:1006100030B421F0004150EA010206D00A0DA2F5E3
:100620006072C1F31301002A02DC30BC0020704765
:10063000440F44EAC104C100E01830BC00EBC250D2
:1006400000F072B8002801DBC0F10040002901DB96
:10065000C1F100418142704730B50B460146002090
:100660002022012409E021FA02F59D4205D303FA74
:1006700002F5491B04FA02F52844151EA2F10102F5
:10068000F1DC30BD2DE9F05F0546002092469B4627
:1006900088460646814640241BE028464146474698
:1006A0002246FFF761FD53465A46C01A914110D3C6
:1006B00011461846224600F016F82D1A67EB01087D
:1006C0004F4622460120002100F00DF817EB0009EB
:1006D0004E41201EA4F10104DFDC484631462A4683
:1006E0004346BDE8F09F202A04DB203A00FA02F1DD
:1006F000002070479140C2F1200320FA03F3194310
:1007000090407047202A06DBCB17203A41FA02F0CE
:1007100043EAE07306E041FA02F3D040C2F120025E
:1007200091400843194670470029A8BF7047401CF4
:10073000490008BF20F00100704710B4B0FA80FCF7
:1007400000FA0CF050EA010404BF10BC704749B134
:10075000CCF1200421FA04F411FA0CF118BF0121A4
:1007600021430843A3EB0C01CB1D4FEA00614FEA84
:10077000102042BF002010BC704700EBC350104453
:100780000029A4BF10BC7047401C490008BF20F0DE
:10079000010010BC704710B541000CD0C0F3C75128
:1007A000962908DC7E2909DC06DB410204D000F032
:1007B000004040F07E5010BD002010BDC1F19604F5
:1007C000C4F1200100FA01F1E040FFF7ADFFA040C5
:1007D00010BD10B5141E73F1000408DA401C41F17D
:1007E000000192185B411A4301D120F0010010BDB5
:1007F0002DE9F04D92469B4611B1B1FA81F202E02B
:10080000B0FA80F220329046FFF76DFF04460F46A3
:1008100040EA0A0041EA0B0153465A46084313D006
:10082000114653EA010019D0C8F140025046FFF7C3
:100830009BFC05460E46504659464246FFF753FF7D
:10084000084305D0012004E020463946BDE8F08D7C
:100850000020054346EAE0762C4337430A986305B7
:10086000E40AA0EB08000022FD0A44EA47540A30DB
:1008700002D500200146E9E7010510196941DDE9CB
:10088000084500196941BDE8F04DA2E72DE9F04D9A
:1008900081EA030404F0004B21F0004514464FF0B8
:1008A000000A23F0004150EA050220D054EA010278
:1008B0001DD0C5F30A570246C5F31303C1F3130055
:1008C000C1F30A5640F4801543F48013A7EB0608E1
:1008D000101BD64608F2FD3873EB050002D308F171
:1008E000010801E092185B41B8F1000F03DA002023
:1008F0000146BDE8F08D00204FF480110646844685
:100900000EE0171B73EB050705D3121B63EB050302
:1009100006434CEA010C49084FEA300092185B414B
:1009200050EA0107EDD152EA030012D082EA040036
:1009300083EA0501084305D0101BAB4106D2012212
:10094000002306E000224FF0004302E06FF00102B6
:1009500053101AEB06004CEB085110EB0A0041EB68
:100960000B01BDE8F04DFFF734BFC1F30A52C1F3EC
:10097000130140F2FF3341F480119A4202DA002061
:100980000146704740F233439A42A2F2334202DCFE
:100990005242FFF7E9BBFFF7A6BE000030B5041EC8
:1009A00071F1000404DB4FF00044404264EB0101AC
:1009B000141E73F1000405DB1C464FF00043524245
:1009C00063EB0403994208BF904230BD064C074DCB
:1009D00006E0E06840F0010394E80700984710340F
:1009E000AC42F6D3FFF7A8FBF860000818610008D6
:1009F00070B58C1810F8015B15F0070301D110F8E1
:100A0000013B2A1106D110F8012B03E010F8016B0D
:100A100001F8016B5B1EF9D12B0705D40023521E90
:100A20000DD401F8013BFAE710F8013BCB1A921CF8
:100A300003E013F8015B01F8015B521EF9D5A142F6
:100A4000D8D3002070BDFEE72DE9F05F8846DDE9D0
:100A50000A1B8146924600241846FFF7F9FB074619
:100A60002FE000BF4FF0FF315046FFF767FC05460F
:100A700029463046FFF7ECFB5946FFF7EFFB2946C6
:100A8000FFF71EFC80F0004005F0B6F84FF07E55F1
:100A90002946FFF78BFB01462846FFF711FC01466C
:100AA0003846FFF7DBFB0A99FFF780FB49F8240083
:100AB00001460948FFF704FCFFF794FD28F81400ED
:100AC000641C2046FFF75FFD06465146FFF7BAFD5E
:100AD000C8D3BDE8F09F00000024744970B53948C0
:100AE000394C00682060002000F0F2FA37484FF4DB
:100AF000487102783648312A04D0322A4AD0332A43
:100B00000ED153E0007807280AD2DFE800F009048C
:100B1000040909060600042000E0032003F012FC8B
:100B2000C82000F095FB40F68C21012003F00AFC60
:100B3000462000F0CDFA4FF47A76304600F088FB7C
:100B40004FF42F71022003F0FDFB42F2F0353046E6
:100B5000256000F07DFBE82004F07CF8700000F0D8
:100B600077FB42F27A602060304600F071FB28206B
:100B700000F0AEFA304600F06BFB40F2DC5025602E
:100B800000F066FB002004F065F83046BDE87040D8
:100B900000F05EBB00780728C2D2DFE800F006054F
:100BA000060405060400B6E7B7E7B9E700780628AB
:100BB000B6D2DFE800F0050504040303ABE7ACE7B9
:100BC000AEE70000500000204C0000205400002040
:100BD0003600002070B55548554C00682060002054
:100BE00000F076FA534A54484FF42F6355784FF487
:100BF0004871312D04D0322D20D0332D5CD139E015
:100C00001278322A02D0332A56D108E00078072819
:100C100052D2DFE800F051420D0F0D0F4000007876
:100C2000072849D2DFE800F04804390406370600F7
:100C3000042000E0032003F085FB3DE01278312A18
:100C400002D0332A38D10AE00078072834D2DFE80E
:100C500000F03322050405042400E9E7EAE7007800
:100C6000072829D2DFE800F0280504191705040039
:100C7000DEE7DFE71278312A02D0322A1CD10EE0FB
:100C80000078072818D2DFE800F0170506050408E9
:100C90000400CDE7CEE71946CCE71946C8E700784F
:100CA000072809D2DFE800F0080706050407060058
:100CB000F3E7F0E7BEE7BBE7C82000F0C9FA4FF45E
:100CC0002F752946012003F03DFB462000F000FA75
:100CD0004FF47A76304600F0BBFA2946022003F042
:100CE00031FB42F2F0353046256000F0B1FAB42015
:100CF00003F0B0FF700000F0ABFA42F27A602060BF
:100D0000304600F0A5FA282000F0E2F9304600F065
:100D10009FFA3046256000F09BFA002003F09AFF0E
:100D20003046BDE8704000F093BA0000500000204B
:100D30004C000020540000203600002070B55248BE
:100D4000524C00682060002000F0C2F9504A51481F
:100D50004FF42F6395784FF44871312D04D0322D24
:100D600020D0332D5CD139E05278322A02D0332A98
:100D700056D108E00078072852D2DFE800F051424F
:100D80000D0F0D0F40000078072849D2DFE800F072
:100D90004804390406370600042000E0032003F06D
:100DA000D1FA3DE05278312A02D0332A38D10AE014
:100DB0000078072834D2DFE800F033220504050468
:100DC0002400E9E7EAE70078072829D2DFE800F005
:100DD0002805041917050400DEE7DFE75278312AF9
:100DE00002D0322A1CD10EE00078072818D2DFE8A2
:100DF00000F01705060504080400CDE7CEE7194604
:100E0000CCE71946C8E70078072809D2DFE800F0E8
:100E10000807060504070600F3E7F0E7BEE7BBE7AF
:100E2000C82000F015FA4FF42F752946012003F071
:100E300089FA462000F04CF94FF47A76304600F0FB
:100E400007FA2946022003F07DFA42F2F0353046D7
:100E5000256000F0FDF9912003F0FCFE700000F029
:100E6000F7F942F27A602060304600F0F1F928206C
:100E700000F02EF9304600F0EBF930462560BDE871
:100E8000704000F0E5B90000500000204C00002048
:100E900054000020360000202DE9F04124484FF492
:100EA00048710078312804D0322807D0332805D182
:100EB00001E0042000E0032003F044FA002000F0E9
:100EC00007F94FF47A76304600F0C2F9194C42F631
:100ED000942077002060384600F0BAF9462000F0F0
:100EE000F7F8304600F0B4F942F2F03538462560A4
:100EF00000F0AEF9E82003F0ADFE384600F0A8F9A6
:100F000042F27A602060304600F0A2F9282000F01A
:100F1000DFF8304600F09CF93046256000F098F983
:100F2000002003F097FE3046BDE8F04100F090B994
:100F3000540000204C0000202DE9F041002000F07A
:100F4000C7F82E484FF448714FF42F624378312B85
:100F500004D0322B0CD0332B13D146E0007832284A
:100F600002D033280DD101E0042008E01146FBE750
:100F70000078312802D0332803D1F5E7032003F0AD
:100F8000E1F91F4C42F694204FF4FA662060304697
:100F900000F05EF9462000F09BF87710384600F02C
:100FA00057F942F2F0353046256000F051F9B4208F
:100FB00003F050FE304600F04BF942F27A602060B8
:100FC000384600F045F9232000F082F8384600F05A
:100FD0003FF93846256000F03BF9002003F03AFE67
:100FE0003846BDE8F04100F033B90078312802D02E
:100FF0003228C6D1C2E71146C0E7000054000020E5
:101000004C0000202DE9F041002000F061F82E484E
:101010004FF448714FF42F628378312B04D0322B78
:101020000CD0332B13D146E04078322802D033283D
:101030000DD101E0042008E01146FBE7407831289B
:1010400002D0332803D1F5E7032003F07BF91F4CCE
:1010500042F694204FF4FA662060304600F0F8F82B
:10106000462000F035F87710384600F0F1F842F2EB
:10107000F0353846256000F0EBF8912003F0EAFDEA
:10108000304600F0E5F842F27A602060384600F021
:10109000DFF8232000F01CF8384600F0D9F8384675
:1010A000256000F0D5F8002003F0D4FD3846BDE8F7
:1010B000F04100F0CDB84078312802D03228C6D1B6
:1010C000C2E71146C0E70000540000204C00002099
:1010D00010B5FFF761FA084A084BFFF7E2F9002262
:1010E000074BFFF737F9FFF791FAFFF77BFA05494E
:1010F00080B20968486310BD1CC7711CC771BC3F32
:1011000000001440581A00207047704702480349F5
:10111000008800B2C86070473A0000200400002038
:101120002DE9F05F90F821100024022903D004215A
:101130008163012485E001680A6822F00E020A60DA
:1011400001680A6822F001020A603F4E3E4FB21564
:10115000DFF8F4C0DFF8F090DFF8ECA0DFF8E8B0DB
:10116000DFF8E4E00168783F13011502ACF1640C8C
:10117000A9F15009AAF13C0AABF1280BAEF1140E0B
:101180004FF48018B14227D9B9420ED0614512D030
:1011900049451DD0514518D0594518D0714501D148
:1011A000424615E0294EB14201D1012210E0274EFE
:1011B0001436B14201D110220AE0244E2836B14241
:1011C00006D0224A3C32914201D11A4600E02A461A
:1011D0001E49091F0A602BE0B94213D0614517D0A0
:1011E000494522D051451DD059451DD0714501D1E9
:1011F00042461AE0B14202D14FF0807215E0134E20
:10120000B14201D1012210E0104E1436B14201D199
:1012100010220AE00D4E2836B14206D00B4A3C326D
:10122000914201D11A4600E02A46074980394A60B6
:10123000012180F82110002180F82010416B01B1BC
:1012400088472046BDE8F09F800002400804024025
:1012500070B5044600F014F90546601C02D004483D
:101260000078044400F00CF9401BA042FAD370BD92
:10127000AC0100202DE9F84FDFF8C891002409F1F6
:10128000040A0AF1040B23460F270BF1040ED1E0E8
:101290000125A54006EA0502AA4276D1DFF8A8C1D9
:1012A0004E68A6EB0C0866452BD00DDC032E34D01F
:1012B00005DC36B3012E19D0022E2FD11BE0112EE2
:1012C00016D0122E2AD119E0B8F5881F19D006DCE5
:1012D000B8F5803F15D0B8F5801F1FD111E0B8F5E3
:1012E000001F0ED0B8F5041F18D10AE0CB6815E036
:1012F000CB681B1D12E0CB6808330FE0CB680C33C2
:101300000CE08B682BB1012B4FF0080303D0456133
:1013100004E0042302E0056100E00023FF2A01D875
:10132000064601E000F104064FEA840501D9A5F163
:101330002005D6F8008007FA05FC28EA0C0803FA15
:1013400005F548EA0508C6F800804D68ED0070D53F
:101350003E4DAE6946F00106AE61AD6924F003066C
:1013600005F0010500953A4D06EB050CDCF8085038
:10137000A607360F07FA06F825EA0805DFF8D48035
:10138000404503D14FF0000825E052E0DFF8C88067
:10139000404502D14FF001081DE0DFF8C080404514
:1013A00002D14FF0020816E0DFF8B480404502D1C8
:1013B0004FF003080FE0DFF8AC80404502D14FF05A
:1013C000040808E0DFF8A080404502D14FF005088E
:1013D00001E04FF0060808FA06F848EA0508CCF8DC
:1013E00008804D68D9F80060ED034D4601D51643DD
:1013F00000E096432E604D68DAF80060AD03554674
:1014000001D5164300E096432E604D68DBF800607E
:10141000ED025D4601D5164300E096432E604D680F
:10142000DEF80060AD02754601D5164300E0964334
:101430002E60641C0A681646E2407FF429AFBDE8BE
:10144000F88F00000004014000001110001002405D
:101450000000014000080140000C01400010014064
:101460000014014000180140001C01408068084041
:1014700000D0012070470AB1016170470904FBE701
:101480000148806870470000AC01002070B504007E
:1014900025D094F83D00002520B984F83C50204622
:1014A00000F050F9242084F83D002068016821F004
:1014B000010101602068016841F400410160206879
:1014C000016821F40041016000F09CFA4D4A616816
:1014D000914201D84C4900E04C49884201D2012098
:1014E00070BD4B492368B0FBF1F15E6826F03F0602
:1014F0000E435E606368934206D94FF49673594376
:101500004FF47A73B1FBF3F12368491C1E6A26F08D
:101510003F06314319626168914210D84900401E6C
:10152000B0FBF1F2521CC2F30B02042A01D20420D8
:1015300022E0B0FBF1F0401CC0F30B001CE0A268FD
:10154000F2B301EBC10303EB0116431EB3FBF6F349
:101550005B1C43F480431B0549D092B301EBC102ED
:1015600002EB0111401EB0FBF1F0401CC0F30B0078
:1015700040F4804040F400402168CA694CF6FF7393
:101580009A431043C861D4E90710014320680268F8
:1015900022F0C00211430160D4E903010143206835
:1015A000826848F2FF339A4311438160D4E9050110
:1015B00008432168CA6822F0FF021043C86001E0B6
:1015C0000EE016E02068016841F001010160256429
:1015D000202084F83D00256384F83E50002070BD33
:1015E00001EB4106431EB3FBF6F35B1CB3E701209E
:1015F000C2E701EB4101401EB0FBF1F0401CC0F31B
:101600000B00B7E7A086010080841E0000093D00A2
:1016100040420F002DE9FF4F83B09A46DDE9119754
:1016200093460446DDF84080FFF72AFF054694F80C
:101630003D0020287FD119230122404920460095F2
:1016400002F0E8FA002876D194F83C00012872D024
:10165000012084F83C0020680168C90703D10168B3
:1016600041F0010101602068016821F4006101601E
:10167000212084F83D00402084F83E0000262664A6
:10168000C4F82480A4F82A90608D20852C48E0625C
:10169000CDE9007553465A462046049902F040FAB7
:1016A00070B930E02A463946204602F032FB58B184
:1016B000206C042804D12068016841F400710160A5
:1016C000012007B0BDE8F08F606A216800780861EA
:1016D000606A401C6062218D491E89B22185628D3D
:1016E000521E628522685369DB435B070BD469B1E4
:1016F00000781061606A401C6062208D401E208569
:10170000608D401E6085208D0028CBD12A46394649
:10171000204602F059FA0028CAD154F83D0B01685E
:1017200041F400710160202004F81E09E677667715
:101730000020C6E7FFE70220C3E700000200100018
:101740000000FFFF10B586B00021009101910291C9
:10175000039100680F4988421AD10F4CA06940F0EC
:101760000800A061A069694600F008000490C0204C
:10177000009012200190032003900848FFF77AFDA3
:10178000E06940F40010E061E06900F400100490AA
:1017900006B010BD0054004000100240000C014093
:1017A000024881680278114481607047AC010020D2
:1017B000074810B5016841F010010160032000F0F6
:1017C00079F8002000F006F800F024F8002010BDA1
:1017D0000020024070B50D4D04464FF47A71287810
:1017E000B1FBF0F00A490968B1FBF0F000F0F0FA43
:1017F00048B9102C07D200222146501E00F03AF8BA
:1018000000206C6070BD012070BD0000AC010020A4
:10181000B80100200E4808B5816941F001018161DD
:10182000816901F001010091C16941F08051C161FC
:10183000C06900F080500090052000F03BF805489A
:10184000416821F0E06141F08061416008BD000025
:101850000010024000000140002809DB00F01F02D8
:10186000012191404009800000F1E020C0F8001102
:1018700070470000F0B40E4B1B680C46C3F3022304
:10188000C3F10705042D00D90425191D072901D22C
:10189000002300E0DB1E012606FA05F1491E214067
:1018A00099409E40761E16403143F0BC03F017BDB0
:1018B0000CED00E0064900F0070208684FF6FF0350
:1018C000184040EA0220034A1043086070470000B5
:1018D0000CED00E00000FA052DE9F0470F46050089
:1018E00061D0434E306800F00700B84209D230683A
:1018F00020F0070038433060306800F00700B8423D
:1019000051D128683B4C810712D5400703D5606848
:1019100040F4E06060602878000703D5606840F418
:10192000605060606068A96820F0F0000843606063
:101930002878C00728D06868012810D021680228BC
:1019400010D0890700292EDA616821F003010143D4
:101950006160FFF795FD804641F288390DE021680E
:101960008903EFE78901EDE7FFF78AFDA0EB0801A6
:10197000494502D90320BDE8F0876068696800F036
:101980000C00B0EB810FEFD1306800F00700B842D7
:101990000BD9306820F0070038433060306800F021
:1019A0000700B84201D00120E5E72878400705D5B7
:1019B0006068E96820F4E060084360602878000708
:1019C00006D56068296920F4605040EAC100606073
:1019D00000F038F86168084AC1F30311515CC8404F
:1019E0000649086006480068FFF7F4FE0020C2E7D9
:1019F0000020024000100240B0600008B801002042
:101A0000B00100200448054900684968044AC1F350
:101A10000221515CC8407047B8010020001002400C
:101A2000C06000080448054900684968044AC1F3D9
:101A3000C221515CC8407047B8010020001002402C
:101A4000C060000812A185B00FC98DE80F0014A076
:101A5000144A006804905168134801F00C03042BE9
:101A600010D0082B0ED1C1F38343C9031DF8030026
:101A70000AD5516804AAC1F34041515C0A4A504357
:101A8000B0FBF1F005B0704708494843FAE70000A1
:101A900002030405060708090A0B0C0D0E0F1010AF
:101AA000010200000010024000127A0000093D000F
:101AB0002DE9F84F040070D02078C04DC00749D000
:101AC0006868C0F38100012807D06868C0F381000E
:101AD000022809D16868C00306D52868800339D573
:101AE00060680028E7D035E06068B0F5803F0BD033
:101AF00010B1B0F5A02F11D0286820F480302860F4
:101B0000286820F4802002E0286840F480302860B3
:101B1000606890B1FFF7B4FC06460AE0286840F41C
:101B200080202860F0E700BFFFF7AAFC801B642834
:101B300073D828688003F7D50CE0FFF7A1FC0646B0
:101B400005E000BFFFF79CFC801B6428F0D82868E4
:101B50008003F7D420789A4E80074FF001094FF0A8
:101B6000000839D5686810F00C0F07D06868C0F31A
:101B70008100022809D16868C00306D4286880075C
:101B800014D52069012808D110E02069B0B1C6F849
:101B90000090FFF775FC074605E00AE1FFF770FCCF
:101BA000C01B0228C4D828688007F7D52868616957
:101BB00020F0F80040EAC10028600DE0C6F800807F
:101BC000FFF75EFC074604E0FFF75AFCC01B022843
:101BD00023D828688007F7D4207800072CD57948C7
:101BE000A169D9B1C0F80090FFF74AFC074604E0AC
:101BF000FFF746FCC01B02280FD8686A8007F7D59C
:101C000071484FF4FA510068B0FBF1F0009000BF4A
:101C10000098411E0091FAD20EE080E0C0F80080EA
:101C2000FFF72EFC074604E0FFF72AFCC01B022842
:101C300075D8686A8007F7D42078400760D5E869CE
:101C40000027C00008D4E86940F08050E861E869E6
:101C5000012700F0805000905C480168C90513D44A
:101C60000168834641F480710160FFF709FC8246F8
:101C700006E000BFFFF704FCA0EB0A0064284ED882
:101C8000DBF80000C005F5D5E06801280AD008B1EE
:101C9000052813D0286A20F001002862286A20F065
:101CA000040002E0286A40F001002862E06841F286
:101CB000883B98B1FFF7E4FB82460BE0286A40F0CE
:101CC00004002862EEE700BFFFF7DAFBA0EB0A0191
:101CD00059455AD8286A8007F6D50CE0FFF7D0FBA3
:101CE000824605E0FFF7CCFBA0EB0A0159454CD832
:101CF000286A8007F6D41FB1E86920F08050E861B7
:101D0000E06988B36968C1F38101022944D00228DF
:101D1000C6F8608004D0FFF7B3FB044638E034E037
:101D2000FFF7AEFB074604E0FFF7AAFBC01B022843
:101D30002BD828688001F7D4206AB0F5803F05D100
:101D40006868A16820F4003008436860D4E908019D
:101D50000843696821F4741108436860C6F860900C
:101D6000FFF78EFB044606E025E000BFFFF788FB87
:101D7000001B022809D828688001F7D51BE000BFA6
:101D8000FFF77EFB001B022802D90320BDE8F88F75
:101D900028688001F4D40EE00128F7D06868226A30
:101DA00000F48031914204D1616A00F470108842DD
:101DB00001D00120EAE70020E8E70000001002401F
:101DC0000000424280044242B801002000700040FE
:101DD00010B5401EB0F1807F01D3012010BD4FF03F
:101DE000E02460610F21601703F079FA0020A06100
:101DF00007202061002010BD7047704710B590F893
:101E00003C20012A22D0012280F83C20CA688C683C
:101E100022F4407222434C6822F4806222430C6810
:101E200022F4006222430C6922F4805222434C695E
:101E300022F400522243C969002322F480420A435B
:101E400001684A6480F83C30002010BD022010BDBB
:101E500070B590F83C20012A2CD0012480F83C4039
:101E6000022280F83D2003685A689D6822F07006BF
:101E70000A6832435A60104B02689A420ED00F4BE8
:101E80009A420BD0B2F1804F08D00D4B9A4205D048
:101E90000C4B9A4202D00C4B9A4204D1496825F06F
:101EA00080031943916080F83D40002180F83C1088
:101EB000084670BD022070BD002C01400034014076
:101EC0000004004000080040000C004010B504462B
:101ED000022249B104290ED0082913D094F84500F4
:101EE000012816D0012010BD94F842000128F9D134
:101EF00084F842200FE094F843000128F2D184F8DE
:101F0000432008E094F844000128EBD184F84420F1
:101F100001E084F845200422206802F09CFF20683C
:101F2000416C41F4004141640E49206888420ED062
:101F30000D4988420BD0B0F1804F08D00B49884240
:101F400005D00B49884202D00A49884204D18168F1
:101F500001F00701062903D0016841F00101016089
:101F6000002010BD002C014000340140000400405E
:101F700000080040000C004010B5040003D094F8A5
:101F80003D0010B107E0012010BD002084F83C00A6
:101F9000204600F01FF8022084F83D00211D206833
:101FA00002F006FF012084F8460084F83E0084F821
:101FB0003F0084F8400084F8410084F8420084F82F
:101FC000430084F8440084F8450084F83D00002074
:101FD00010BD000008B5204A01682048914207D191
:101FE000816941F400618161806900F400600CE066
:101FF000B1F1804F0BD01A4A914217D1C16941F01B
:102000000201C161C06900F00200009008BDC16911
:1020100041F00101C161C069012200F0010000909E
:1020200011461C20FFF726FC1C2010E00D4A9142AF
:10203000ECD1C16941F01001C161C069002200F01A
:102040001000009001213620FFF714FC3620BDE877
:102050000840FFF701BC0000002C014000100240C6
:10206000000400400010004090F83D10012901D00C
:1020700001207047022180F83D1000680E49884217
:102080000ED00E4988420BD0B0F1804F08D00C49D9
:10209000884205D00B49884202D00B49884204D1BE
:1020A000816801F00701062903D0016841F00101B0
:1020B0000160002070470000002C01400034014006
:1020C0000004004000080040000C004090F83D1063
:1020D000012901D001207047022180F83D100168DC
:1020E000CA6842F00102CA6000680E4988420ED0F8
:1020F0000D4988420BD0B0F1804F08D00B4988427F
:1021000005D00B49884202D00A49884204D181682F
:1021100001F00701062903D0016841F001010160C7
:1021200000207047002C01400034014000040040B2
:1021300000080040000C004070B5044690F83C00D8
:10214000012817D0012584F83C50022084F83D0076
:102150002068826822F0770222F47F428260086859
:10216000502830D00DDC20284DD005DC98B3102845
:102170003BD148E0022070BD302844D0402834D103
:1021800039E0602828D0702806D0B0F5805F2CD0C8
:10219000B0F5005F29D10AE0CB68D1E901212068C0
:1021A00002F066FE2068816841F0770109E0CB68A3
:1021B000D1E90121206802F05BFE2068816841F4CA
:1021C0008041816011E0CA684968206802F024FFFC
:1021D0005021206807E016E0CA684968206802F0CC
:1021E0002CFF6021206802F04DFE84F83D50002055
:1021F00084F83C0070BDCA684968206802F00CFF92
:1022000040212068EFE7226801461046EBE72DE900
:10221000F0410D46040003D094F83D0018B108E0E9
:102220000120BDE8F081002084F83C00204600F049
:1022300041F8022084F83D002068816844F20702DA
:1022400091438160211D206802F0B2FD22689068F0
:102250009169166A2B68AF69034340F203308143EA
:1022600041EA0721A868EF6908434FF6FC4188431B
:10227000E96840EA0720014328692F6A000140EA23
:102280000730084369686D6926F0220646EA05159D
:10229000294393602268906154F8460B0162012043
:1022A00004F81F09E0752076E0762077A0750020FD
:1022B000B7E7000000B585B00021009101910291BF
:1022C000039100681249884220D11248C16941F047
:1022D0000401C161C16901F004010491816941F007
:1022E000200181618069694600F0200004904FF46C
:1022F00040500090012002900748FEF7BBFF0748BE
:10230000416841F0E06141F48051416005B000BD99
:10231000000800400010024000140140000001408D
:1023200070B590F83E60044690F83F5090F8423007
:1023300090F84320022021B104290ED0012E1BD198
:1023400014E0012E18D1012B16D184F83E0084F838
:10235000420001220021206820E0012D0CD1012A39
:102360000AD184F83F0084F8430014E0012D03D122
:10237000012B01D1012A01D0012070BD84F83E005B
:1023800084F83F0084F8420084F8430001220021D1
:10239000206802F053FD01220421206802F04EFD66
:1023A0002068016841F001010160002070BD7047A4
:1023B00070B50446006801694FF00005C9438907FC
:1023C00015D4C168C943890711D4E91E01610120F0
:1023D0002077206880698007204602D0FFF7E7FF5A
:1023E00004E000F02FF9204600F08FFD25772068EB
:1023F0000169C943490717D4C168C943490713D4C0
:102400006FF004010161022020772068806910F4D8
:10241000407F204602D0FFF7CAFF04E000F012F927
:10242000204600F072FD257720680169C94309073D
:1024300016D4C168C943090712D46FF008010161BD
:10244000042020772068C0698007204602D0FFF76B
:10245000AEFF04E000F0F6F8204600F056FD2577C8
:1024600020680169C943C90617D4C168C943C906B0
:1024700013D46FF010010161082020772068C06933
:1024800010F4407F204602D0FFF791FF04E000F0F7
:10249000D9F8204600F039FD257720680169C94345
:1024A000C90708D1C168C943C90704D1891E0161A0
:1024B000204600F085FD20680169C943090609D45A
:1024C000C168C943090605D46FF080010161204647
:1024D000FFF792FC20680169C943490609D4C16825
:1024E000C943490605D46FF040010161204601F05F
:1024F00081F820680169C94389060BD4C168C943C2
:10250000890607D46FF0200101612046BDE87040C4
:10251000FFF773BC70BD0000F0B585B000210091DD
:102520000191029103912D4A01682D48022403264E
:102530002C4D914220D1816941F040018161806937
:10254000294F00F0400004909015CDE90004694641
:1025500038460394FEF78EFE2002CDE9000469465A
:1025600003963846FEF786FE686820F0C00040F00B
:10257000E06040F0C0001CE0B1F1804F1CD01B4A6D
:10258000914217D1816941F01001816180696946EA
:1025900000F010000490C020CDE90004144803941A
:1025A000FEF768FE686820F4406040F0E06040F4A8
:1025B0004060686005B0F0BD816941F0040181614F
:1025C0008069694600F0040004900F20CDE9000402
:1025D00003960848FEF74EFEECE70000002C014091
:1025E00000100240000001400018014000040040BB
:1025F000001001400008014010B5044690F83C006E
:1026000001280AD0012084F83C0042B1042A0AD0F3
:10261000082A0CD00C2A11D10DE0022010BD206830
:1026200002F038FC0AE0206802F064FC06E0206852
:1026300002F096FC02E0206802F0C6FC002084F85C
:102640003C0010BD2DE9F14FFF4B0098DFF8FC83F3
:10265000DFF800A490F81CC0FD4800264FF4167E59
:102660004FF0804BFC4CFD49032722684FF00209D4
:102670003546BCF1010F09D0BCF1020F55D0BCF1B9
:10268000040F7DD0BCF1080F7BD040E1D3F800C02F
:102690000CF1010CC3F800C05FEACC73F5D191F8DE
:1026A00000C0BCF1000F38D0E84BBCF1010F1B6833
:1026B00006D0BCF1020F1FD0BCF1030FE5D110E032
:1026C00030F813C0C2F82CC030F81300E060226864
:1026D000400850635B1CC8F800307345D5D30F70B9
:1026E00015E1BAF80020521E1204120CAAF80020BC
:1026F000CBD181F800900AE15B1EC8F8003030F8B9
:1027000013C0C2F82CC030F81300E06022684FEA12
:102710005000506300D10D70F9E000221146584678
:1027200002F08CFB6FF00200EFE0D3F804C00CF174
:10273000010CC3F804C05FEACC7320D191F801C04A
:10274000BCF1000F3AD0C14BBCF1010F5B6806D061
:10275000BCF1020F21D0BCF1030F10D112E030F810
:1027600013C0C2F82CC030F81300E06022684008A3
:1027700090635B1CC8F80430734500D34F70C6E00B
:1027800024E074E0BAF80220521E1204120CAAF8D7
:10279000022001D181F80190B9E05B1EC8F8043035
:1027A00030F813C0C2F82CC030F81300E060226883
:1027B0004FEA5000906300D14D70A8E00022042140
:1027C000584602F03BFB6FF004009EE0D3F808C0CF
:1027D0000CF1010CC3F808C05FEACC7320D191F86A
:1027E00002C0BCF1000F38D0984BBCF1010F9B68C0
:1027F00006D0BCF1020F1FD0BCF1030F10D110E0C6
:1028000030F813C0C2F82CC030F81300E060226822
:102810004008D0635B1CC8F80830734577D38F70CD
:1028200075E0BAF80420521E1204120CAAF8042013
:102830006DD181F802906AE05B1EC8F8083030F86C
:1028400013C0C2F82CC030F81300E06022684FEAD1
:102850005000D0635BD18D7059E0002208215846AA
:1028600002F0ECFA20686FF00801016146E0D3F84D
:102870000CC00CF1010CC3F80CC05FEACC7346D15C
:1028800091F803C0BCF1000F38D0704BBCF1010FC0
:10289000DB6806D0BCF1020F1FD0BCF1030F36D1AC
:1028A00010E030F813C0C2F82CC030F81300E0601C
:1028B0002268400810645B1CC8F80C30734526D3AE
:1028C000CF7024E0BAF80620521E1204120CAAF8A7
:1028D00006201CD181F8039019E05B1EC8F80C306B
:1028E00030F813C0C2F82CC030F81300E060226842
:1028F0004FEA500010640AD1CD7008E000220C218C
:10290000584602F09BFA6FF0100021680861DFF86A
:1029100050B19BF8000001287CD10098514ADFF8A3
:1029200048C190F81C80514B514952484FF4C87A25
:10293000B8F1010F09D0B8F1020F53D0B8F1040F6C
:1029400069D0B8F1080F67D047E1D3F8008008F1EB
:102950000108C3F800805FEAC87824D191F80080AC
:10296000B8F1000F1FD0B8F1010F06D0B8F1020F77
:1029700025D0B8F1030F16D116E0D0F800C0D4F876
:102980000080914632F81C20C8F82C2039F81C2011
:10299000E2602468520862630CF1010CC0F800C0C8
:1029A000D44500D30F7018E1BCF80020521E120469
:1029B000120CACF8002001D181F800900DE10768FD
:1029C0007F1E0760D4F8008032F817C0C8F82CC00A
:1029D00032F81720E26024684FEA5202626300D1A5
:1029E0000D70FAE0D3F8048008F10108C3F8048000
:1029F0005FEAC87827D191F80180B8F1000F22D0A2
:102A0000B8F1010F09D0B8F1020F40D0B8F1030FAF
:102A100019D131E06FE04DE093E0D0F804C0D4F874
:102A20000080914632F81C20C8F82C2039F81C2070
:102A3000E26024685208A2630CF1010CC0F804C0E3
:102A4000D44500D34F70C8E0D4010020C401002059
:102A5000640B00205C000020101A00203F000020C2
:102A6000280000205416002064000020F4010020FB
:102A700043000020E4010020BCF80220521E120492
:102A8000120CACF8022001D181F80190A5E0476852
:102A90007F1E4760D4F8008032F817C0C8F82CC0F9
:102AA00032F81720E26024684FEA5202A26300D194
:102AB0004D7092E0D3F8088008F10108C3F808804F
:102AC0005FEAC8786BD191F80280B8F1000F37D077
:102AD000B8F1010F11D0B8F1020F1FD0B8F1030FF8
:102AE00009D1BCF80400401E0004000CACF804003E
:102AF00001D181F80290BDE8F88F8368266832F82A
:102B00001350F56232F81320E26024685208E26341
:102B10005B1C83605345EED38F70ECE787687F1EA4
:102B20008760D4F8008032F817C0C8F82CC032F89B
:102B30001720E26024684FEA5202E263DBD18D7015
:102B40004EE0D3F80C8008F10108C3F80C805FEA6E
:102B5000C87842D191F80380B8F1000F3DD0B8F1A8
:102B6000010F06D0B8F1020F25D0B8F1030F34D110
:102B700016E0D0F80CC0D4F80080914632F81C2042
:102B8000C8F82C2039F81C20E2602468520822641E
:102B90000CF1010CC0F80CC0D4451ED3CF701CE062
:102BA000BCF80620521E1204120CACF8062014D1F8
:102BB00081F8039011E0C7687F1EC760D4F80080D9
:102BC00032F817C0C8F82CC032F81720E260246829
:102BD0004FEA5202226400D1CD708A78002A8AD14D
:102BE0000A78002A87D18BF80050012240F826503D
:102BF00043F826508A55761CF6B2042EF6D37AE7AF
:102C000010B5040003D094F83D0010B107E0012096
:102C100010BD002084F83C00204600F01EF8022081
:102C200084F83D00211D206802F0C2F8012084F8DC
:102C3000460084F83E0084F83F0084F8400084F8A1
:102C4000410084F8420084F8430084F8440084F88A
:102C5000450084F83D00002010BD704710B50446C3
:102C6000022249B1042912D008291CD094F841004D
:102C7000012823D0012010BD94F83E000128F9D18D
:102C800084F83E202068C26842F0020209E094F80D
:102C90003F000128EED184F83F202068C26842F04E
:102CA0000402C2600EE094F840000128E2D184F8EA
:102CB00040202068C26842F00802F2E784F8412010
:102CC0000C292AD00122206802F0B8F815492068A2
:102CD000154A884201D0904203D1436C43F400432B
:102CE0004364206888420DD090420BD0B0F1804FF1
:102CF00008D00E49884205D00D49884202D00D49BE
:102D0000884204D1816801F00701062903D00168D7
:102D100041F001010160002010BD2068C26842F04E
:102D20001002BEE7002C01400034014000040040C6
:102D300000080040000C004030B5044600680D005B
:102D400006D0042D08D0082D38D00C2D08D139E03C
:102D5000C16821F0020102E0C16821F00401C160F4
:102D600000222946206802F069F81D4B41F211113A
:102D700020688A10984202D01A4B984209D1036AFF
:102D80000B4206D1036A134203D1436C23F4004380
:102D900043642068036A0B4206D1016A114203D1E1
:102DA000016821F00101016001207DB1042D10D0E6
:102DB000082D11D084F84100002030BDC16821F0F9
:102DC0000801CCE7C16821F01001C8E784F83E0093
:102DD000F2E784F83F00EFE784F84000ECE70000FA
:102DE000002C01400034014070B5044690F83C00CE
:102DF0000D4601280AD0012084F83C0042B1042A83
:102E000018D0082A2AD00C2A4DD139E0022070BDF2
:102E1000206802F03FF82068816941F00801816173
:102E20002068816921F004018161206881692A6933
:102E3000114311E0206802F05DF82068816941F4D7
:102E4000006181612068816921F48061816120686D
:102E500081692A6941EA0221816124E0206802F047
:102E60007FF82068C16941F00801C1612068C1692B
:102E700021F00401C1612068C1692A69114311E090
:102E8000206802F0A1F82068C16941F40061C161C5
:102E90002068C16921F48061C1612068C1692A6923
:102EA00041EA0221C161002084F83C0070BD10B5E8
:102EB000040003D094F83D0010B107E0012010BDDC
:102EC000002084F83C00204600F01EF8022084F820
:102ED0003D00211D206801F06BFF012084F84600B1
:102EE00084F83E0084F83F0084F8400084F84100F4
:102EF00084F8420084F8430084F8440084F84500D4
:102F000084F83D00002010BD7047704710B504469E
:102F1000022249B104290ED0082913D094F84100A7
:102F2000012816D0012010BD94F83E000128F9D1E7
:102F300084F83E200FE094F83F000128F2D184F895
:102F40003F2008E094F840000128EBD184F84020AD
:102F500001E084F841200122206801F06FFF13494D
:102F60002068134A884201D0904203D1436C43F455
:102F700000434364206888420DD090420BD0B0F1EA
:102F8000804F08D00B49884205D00B49884202D0B7
:102F90000A49884204D1816801F00701062903D05B
:102FA000016841F001010160002010BD002C0140CA
:102FB000003401400004004000080040000C0040C4
:102FC0002DE9F05FFC490068096888427ED1FB4D1D
:102FD0000126FB4F687A0024012833D102213846AC
:102FE000FEF744FA012809D101213846FEF73EFADE
:102FF00020B904213846FEF739FA10B302213846C9
:10300000FEF734FA01280BD101213846FEF72EFADB
:10301000012805D104213846FEF728FA012810D0EE
:1030200001213846FEF722FADFF89093DFF894A3E7
:1030300009F117090AF1100809F1040B012802D05F
:1030400005E06C7150E099F80300032806D00421D4
:103050003846FEF70BFA01281FD045E06879401C7E
:10306000C0B26871297891BB03283DD3D34A282187
:10307000AC70D4465B463C32A8784CF8204048F807
:1030800020401E5422F81010401CC0B2A870042822
:10309000F2D31C708BF8014024E099F80300032858
:1030A00022D16879401CC0B26871297879B90328A7
:1030B0001AD3C24A2821AC70D4465B463C32A87869
:1030C0004CF8204048F820401E5401E08AE20BE012
:1030D00022F81010401CC0B2A8700428EFD39C70D6
:1030E0008BF803402E70ACE7A8466878B34D3435B2
:1030F000012829D120213846FEF7B8F9012804D04B
:1031000098F80800012802D00DE088F80860202116
:103110003846FEF7ABF930B988F8084098F8071040
:10312000491C88F8071098F80710404602290BD36D
:1031300084704FF42F72817825F81120491CC9B290
:1031400081700429F7D329E298F8010002281DD1E3
:1031500020213846FEF78AF9012804D098F80800A3
:10316000012802D00DE088F8086020213846FEF7DB
:103170007DF930B988F8084098F80710491C88F89C
:10318000071098F807104046022906D098F8010069
:1031900040F6DE5903280CD034E0847040F2DC5253
:1031A000817825F81120491CC9B281700429F7D310
:1031B000F4E120213846FEF759F9012804D098F8A7
:1031C0000800012802D00DE088F808602021384668
:1031D000FEF74CF930B988F8084098F80710491CF8
:1031E00088F8071098F80710404603290AD384701E
:1031F0004A46817825F81120491CC9B281700429FA
:10320000F7D3CBE198F801004FF4EB7B042805D10C
:1032100001213846FEF72AF9012804D098F8010068
:1032200005280DD03AE0404688F802405A46817899
:1032300025F81120491CC9B281700429F7D3ADE1EA
:1032400020213846FEF712F9012804D098F808002A
:10325000012802D00DE088F8086020213846FEF7EA
:1032600005F930B988F8084098F80710491C88F823
:10327000071098F80710404602290FD384704A4679
:10328000817825F81120491CC9B281700429F7D32F
:103290008179491CC9B2817102297DD298F8010057
:1032A00006282CD120213846FEF7E0F8012804D06A
:1032B00098F80800012802D00DE088F80860202165
:1032C0003846FEF7D3F830B988F8084098F8071068
:1032D000491C88F8071098F80710404679B18470A7
:1032E0004A46817825F81120491CC9B28170042909
:1032F000F7D38179491CC9B2817102294CD298F85F
:1033000001004FF0640A072805D108213846FEF76E
:10331000ADF8012804D098F8010008280DD03AE053
:10332000404688F802405246817825F81120491C11
:10333000C9B281700429F7D330E120213846FEF765
:1033400095F8012804D098F80800012802D00DE073
:1033500088F8086020213846FEF788F830B988F8E8
:10336000084098F80710491C88F8071098F80710CB
:10337000404602290FD384704A46817825F81120EF
:10338000491CC9B281700429F7D38179491CC9B29B
:103390008171022900D200E09AE098F80100092822
:1033A00005D101213846FEF761F801280CD098F8C4
:1033B00001000A2815D042E0E81A00202800002069
:1033C000001C0140E4010020404688F802405A46B3
:1033D000817825F81120491CC9B281700429F7D3DE
:1033E000DCE020213846FEF741F8012804D098F8A7
:1033F0000800012802D00DE088F808602021384636
:10340000FEF734F830B988F8084098F80710491CDE
:1034100088F8071098F80710404604290FD38470E5
:103420004A46817825F81120491CC9B281700429C7
:10343000F7D38179491CC9B28171022948D298F821
:1034400001000B2805D108213846FEF70FF80128A6
:1034500004D098F801000C280DD040E0404688F8D0
:1034600002405246817825F81120491CC9B281706A
:103470000429F7D392E020213846FDF7F7FF012811
:1034800004D098F80800012802D00DE088F8086000
:1034900020213846FDF7EAFF30B988F8084098F84F
:1034A0000710491C88F8071098F807104046B1B17A
:1034B00084704A46817825F81120491CC9B2817070
:1034C0000429F7D38179491CC9B28171032906D334
:1034D000C47144704472047088F8064061E098F842
:1034E00001000D282ED102213846FDF7BFFF01282B
:1034F00004D098F80800012802D00DE088F8086090
:1035000002213846FDF7B2FF30B988F8084098F834
:103510000710491C88F8071098F80710404603293F
:1035200010D384704FF41662817825F81120491C5D
:10353000C9B281700429F7D3C4714470447288F809
:1035400000402EE098F801000E282AD104213846C8
:10355000FDF78CFF012804D098F80800012802D05C
:103560000DE088F8086004213846FDF77FFF30B988
:1035700088F8084098F80710491C88F8071098F850
:103580000710404669B1847040F67A52817825F878
:103590001120491CC9B281700429F7D34470C47149
:1035A000CCE798F80B00444658B10F480068016812
:1035B000C1F300116173406A208242F21071084425
:1035C0006082207B00280DD0FDF7A0FD0748016830
:1035D000606A01F06DFB06490860BDE8F05F40B22B
:1035E00000F0BEBBBDE8F09FA01A00201000002034
:1035F000240000207047704770B5026804461068C8
:10360000D168536910F00F0F52D003F0010501F497
:1036100090762E435FD0C20705D0CA0503D5E26B72
:1036200042F00102E263420705D5DA0703D0E26BFC
:1036300042F00202E263820705D5DA0703D0E26BAB
:1036400042F00402E263020707D501F020022A4398
:1036500003D0E26B42F00802E263E26B002A33D04F
:10366000800604D5880602D5204601F00EFD2068AC
:103670004069E16BC0F38010090700D428B32046ED
:1036800001F0F5FC2068416949061AD5416921F02D
:1036900040014161606BA0B12D494163606BFDF752
:1036A0003FFD002810D0606B416BBDE870400847BB
:1036B000830610D58B060ED52046BDE8704001F07C
:1036C000E4BC2046FFF797FF70BD2046FFF793FF4D
:1036D0000020E06370BD03062BD50B0629D594F8B6
:1036E00039002128F6D1A068B0F5805F01D12069AA
:1036F000B0B1206A411C2162216800784860E08CEA
:10370000401E0004000CE084E4D12068C16821F070
:103710008001C1602068C16841F04001C16070BD96
:10372000206A0088C0F308005060206A801C206274
:10373000E5E74006F3D54806F1D5D168204621F0EB
:103740004001D160202184F8391000F0D0F970BD1B
:103750005F50000870B5040004D094F839000025CB
:1037600010B106E0012070BD84F83850204600F00A
:1037700023F8242084F839002068C16821F400511E
:10378000C160204601F0C8FC2068016921F4904125
:1037900001612068416921F02A0141612068C16806
:1037A00041F40051C160E563202084F8390084F8B9
:1037B0003A00002070BD000070B586B0002400946F
:1037C00001940294039403684448434E0221032267
:1037D0000515B34221D1836943F480438361836932
:1037E00003F480430493836943F004038361806995
:1037F0003B4E00F0040004900802CDE90001039262
:1038000069463046FDF736FDCDE90054694630463D
:103810000294FDF72FFD06B070BD324EB3422ED19B
:10382000C36943F40033C361C36903F400330493F1
:10383000836943F02003836180692B4D00F02000F1
:1038400004902020CDE90001039269462846FDF747
:1038500011FD4020CDE90004694628460294FDF799
:1038600009FD2248416841F0E06141F008014160F2
:10387000002211462620FDF7FDFF262028E01C4EE1
:10388000B342C8D1C36943F48023C361C36903F45D
:1038900080230493836943F0080383618069CDE941
:1038A000005100F00800CDE90320124D694628467A
:1038B000FDF7E0FCE814CDE90004694628460294CF
:1038C000FDF7D8FC002211462720FDF7D3FF272063
:1038D000FDF7C2FF9FE700000038014000100240E2
:1038E0000008014000440040001401400000014075
:1038F00000480040000C014090F83A30202B22D1C3
:10390000F9B1F2B190F83830012B1CD08162828578
:10391000C2850021C163222280F83A2080F8381045
:103920000168CA6842F48072CA6001684A6942F05C
:1039300001024A610068C16841F02001C1600020B5
:103940007047012070470220704700002DE9F843BE
:10395000074600682E492F4D884235D1E878012668
:10396000012827D1002400F0A2FD05F12C084FF01A
:10397000110900BF18F804002B2822D0312804D0E8
:10398000322805D0332810D118E02248443001E015
:1039900020489430009009EB0410C2B206EB0410EA
:1039A000C0B20623002100F085FD641CE4B2072CA0
:1039B000E0D3AE72E878022805D005E01548E4307F
:1039C000E8E71548E6E7AE721449386888420ED138
:1039D0001048143001788A0711D50A070DD4B0F8C1
:1039E0000100C90740BA04D0286203206872BDE80C
:1039F000F883404228620220F8E709A004E0480763
:103A000001D40AA000E00BA0BDE8F84301F044BCDB
:103A100000480040280000205C01002000440040D5
:103A2000C8ABB2BFD4DACFDFC9CF0000D7F3B3F64B
:103A3000CFDF0000D3D2B3F6CFDF00002DE9F8438B
:103A4000044690F839001F4616460D4620284CD1F2
:103A5000C5B1BEB194F83800012846D0012084F8E1
:103A600038004FF00008C4F83C80212084F8390069
:103A7000FDF706FDA6848146E684A068B0F5805F68
:103A800003D004E00120BDE8F883206928B12E4668
:103A90005FF0000584F838800EE00026FAE7802108
:103AA000204601F095FBA0B9AEB116F8010B2168D4
:103AB0004860E08C401EE084E08C4B464FF00002F2
:103AC00000970028EBD14FF04001204601F080FB29
:103AD00030B10320D7E735F8020BC0F30800E6E762
:103AE000202084F839000020CDE70220CBE7704782
:103AF000FEE701684A69D24352050FD46FF4806231
:103B00004A61002140F8301F20224273817302690C
:103B100042F00402026101730120704700207047E7
:103B20002DE9F843044600680D46DDE90897016871
:103B30009846164641F4807101604B4600224FF0D2
:103B400001112046009700F065F848B12068006830
:103B5000C00502D54FF4007020640320BDE8F8834F
:103B6000216805F0FE0008613B464A46154920469B
:103B700000F084F888B920684169806900903A466D
:103B80004946204600F0C5F848B1206C042804D10D
:103B90002068016841F4007101600120DEE7F5B2A0
:103BA000B8F1010F09D02168300A08613A46494648
:103BB000204600F0AEF80028E7D12068056100201B
:103BC000CCE700000200010070B516460D46044621
:103BD0000DE02046FFF78DFF08B1012070BD681C85
:103BE00005D0FDF74DFC801BA84207D835B12068F1
:103BF0004069C0434007ECD4002070BD002044F869
:103C0000300F20216173A073216941F020012161EF
:103C10002073E2E72DE9F0471E4690460D46044624
:103C2000C1F30747DDF8209008E0701C06D0FDF7CF
:103C300027FCA0EB0900B0420FD876B12068012F15
:103C400018D0806925EA00000004000C14D000217F
:103C50004145EAD00020BDE8F087002044F8300F4D
:103C600020216173A073216941F02001216120733B
:103C70000120F0E74069E5E70121E9E72DE9F04798
:103C80009A4691460E46044600254FF02008C1F39F
:103C9000074725E020684069C043400514D42068E8
:103CA000016841F40071016021686FF4806048612F
:103CB000256384F83D8084F83E50206C40F0040079
:103CC000206484F83C501FE0B9F1FF3F08D0FDF7B5
:103CD000D7FBA0EB0A0149450CD8B9F1000F09D078
:103CE0002068012F13D0806926EA00000004000C30
:103CF0000BD0CFE744F8305F84F80D80A5732069BE
:103D000040F02000206125730120BDE8F087406964
:103D1000EAE770B516460D4604460DE02046FFF76B
:103D2000E8FE08B1012070BD681C05D0FDF7A8FBB6
:103D3000801BA84207D835B120684069C0430006FF
:103D4000ECD4002070BD002044F8300F20216173B6
:103D5000A073216941F0200121612073E2E7000096
:103D6000312801DD312004E06FF03001884200DAB3
:103D7000084602493230096848637047C819002074
:103D800010B500210448FEF7A1F8BDE8104000215D
:103D90000148FFF7BBB80000C81900202DE9F04F1B
:103DA00085B00024404800940194029403948169F2
:103DB00041F040018161816901F040010491816914
:103DC00041F010018161816901F010010491816964
:103DD00041F080018161816901F080010491816974
:103DE00041F004018161816901F00401049181695C
:103DF00041F008018161816901F008010491816944
:103E000041F0200181618069DFF8A08000F020008E
:103E10000490002220214046FDF72DFBDFF8909012
:103E20000022F0214846FDF726FBDFF888A000229B
:103E300010215046FDF71FFBDFF87CB00022202147
:103E40005846FDF718FB2027022601250097039608
:103E5000CDE9015469464046FDF70CFA3F20CDE913
:103E60000004694615480294FDF704FAF020CDE9F4
:103E70000005CDE9024669464846FDF7FBF91020EA
:103E8000CDE90005CDE9024669465046FDF7F2F955
:103E900000970396CDE9015469465846FDF7EAF9C3
:103EA00005B0BDE8F08F000000100240001801408E
:103EB0000008014000100140000C0140001C0140BE
:103EC0000D4810B50B4901600C49416000214FF4C9
:103ED00080428160C0E9031241618161C161016278
:103EE000FDF7D4FA002803D0BDE81040FDF70DB966
:103EF00010BD00000054004074190020A08601008D
:103F000010B596B000240F94109411941294139449
:103F10001C2108A81494FCF73EF920216846FCF700
:103F20003AF929482749016041F61F41C0E90114C7
:103F30006321C0E903148021C0E90541FEF71CF8A4
:103F400008B1FDF7E2F84FF480500F900FA91E481A
:103F5000FEF7F2F808B1FDF7D8F81B48FEF7A7FF07
:103F600008B1FDF7D2F8139413A917481494FDF77C
:103F70006FFF08B1FDF7C9F8602008903220CDE945
:103F800009040B940C940D94002208A90E480E9479
:103F9000FEF72AFF08B1FDF7B8F800944FF400507F
:103FA000CDE90440029401940394694606480794BD
:103FB000FDF724FF08B1FDF7A8F80348FEF7ACFAB7
:103FC00016B010BD002C0140C819002010B58EB0ED
:103FD00000240794089409940A940B941C216846C1
:103FE0000C94FCF7D8F82B484FF080410160472132
:103FF000C0E901144FF6FF71C0E90314802181610B
:10400000FDF7BAFF08B1FDF780F84FF48050079034
:1040100007A92048FEF790F808B1FDF776F81D488B
:10402000FEF7EEFD08B1FDF770F80B940BA91948E7
:104030000C94FDF70DFF08B1FDF767F830200090F4
:104040004FF47A70CDE901040022694611480494C6
:10405000FEF7D2FA08B1FDF758F8042269460D4878
:10406000FEF7CAFA08B1FDF750F808226946094878
:10407000FEF7C2FA08B1FDF748F80C226946054878
:10408000FEF7BAFA08B1FDF740F80248FEF744FA25
:104090000EB010BD101A002010B58EB00024079489
:1040A000089409940A940B941C2168460C94FCF71C
:1040B00072F823482149016041F61F41C0E901140B
:1040C000C721C0E9031480218161FDF755FF08B1C4
:1040D000FDF71BF84FF48050079007A91848FEF72A
:1040E0002BF808B1FDF711F81548FEF7E0FE08B10E
:1040F000FDF70BF80B940BA911480C94FDF7A8FEE3
:1041000008B1FDF702F86020CDE900040294002216
:1041100069460B480494FEF767FE08B1FCF7F5FF0B
:10412000042269460648FEF75FFE08B1FCF7EDFF82
:104130000348FEF7F1F90EB010BD00000004004086
:10414000581A002010B58CB024216846FCF723F8DB
:1041500000241548099413490A94C0E900144FF645
:10416000FF71C0E90241046184610120CDE90004CE
:10417000CDE902040494CDE90540079469460A4854
:104180000894FEF744F808B1FCF7BFFF099409A9A9
:1041900005480A94FDF75CFE002801D0FCF7B5FF46
:1041A0000CB010BD00080040A01A00201CB500246F
:1041B0000E4800940C490194016041F61F41C0E98A
:1041C000011463218461C160FDF7D6FE08B1FCF7DC
:1041D0009CFF0094694605480194FDF739FE0028CC
:1041E00001D0FCF792FF1CBD00100040E81A00202F
:1041F0000C4810B50A4901604FF4E13141600021DB
:1042000081600C22C160C0E904128161C161FFF7C5
:10421000A1FA002803D0BDE81040FCF776BF10BD1E
:1042200000380140301B00200C4810B50A490160DD
:104230004FF416514160002181600C22C160C0E939
:1042400004128161C161FFF785FA002803D0BDE83F
:104250001040FCF75ABF10BD00440040701B002006
:104260000C4810B50A4901604FF4E131416000216A
:1042700081600C22C160C0E904128161C161FFF755
:1042800069FA002803D0BDE81040FCF73EBF10BD1E
:1042900000480040B01B0020FEE7000015484FF426
:1042A000487182781448312A00780AD0322A15D011
:1042B000332A1DD106281BD2DFE800F01A1A0D0D93
:1042C0000B0B072814D2DFE800F0130404131306C5
:1042D0000600032000E0042000F034B8072807D2CD
:1042E000DFE800F00605060405060400F1E7F2E742
:1042F00070470000540000203600002008484FF4AA
:1043000048718078312807D0322807D0332805D16A
:104310005FF0040000F016B80320FBE770470000D0
:104320005400002006488078312805D0322806D174
:104330000101032000F006B84FF42F61F9E7704740
:104340005400002070B5524C0026524B26708AB2A1
:10435000217823F81120491CC9B221700429F7D310
:104360004D4D062820D2DFE800F01F030F6A71824E
:10437000002210212846FDF77EF801222021284640
:10438000FDF779F800226CE0012210212846FDF7A4
:1043900072F8002220212846FDF76DF8012271E015
:1043A00080212846FDF767F800213C48FEF756FCBF
:1043B00004213A48FEF752FC08213848FEF74EFC2B
:1043C0000C213648FEF74AFC0122950700212846B9
:1043D00000F034FD01220421284600F02FFD0122C7
:1043E0000821284600F02AFD01220C21284600F071
:1043F00025FD41F21110296A0142FCD10021274814
:10440000FEF79AFC04212548FEF796FC0821234874
:10441000FEF792FC0C212148FEF78EFC204A214B2E
:10442000214D26700121207842F8206043F8206059
:104430002954401CC0B220700428F4D370BD01225E
:1044400010212846FDF717F8012216E0002210215E
:104450002846FDF710F8002220212846FDF70BF82A
:10446000012240212846FDF706F8012298E70022A4
:1044700010212846FCF7FFFF002220212846FCF7E8
:10448000FAFF002240212846FCF7F5FF002287E7CB
:10449000000000205C00002000080140101A0020ED
:1044A000C4010020D40100203F00002070470020FC
:1044B00000F020B82DE9F0479846174682460026BE
:1044C0000C46DDF8209010E02146504600F088F8B8
:1044D000554606E019F80600761C00F0CBFE6D1C70
:1044E000EDB2BD42F6D3641CE4B24445ECD3BDE862
:1044F000F087000070B506465FF0000404F1B000DC
:10450000C0B200F0A5FE002000F0A2FE102000F0D6
:104510009FFE0025304600F0ADFE6D1CEDB2802DF3
:10452000F8D3641CE4B2082CE8D370BD10B5642045
:10453000FCF78EFEAE2000F08BFE202000F088FEFF
:10454000102000F085FEB02000F082FEC82000F0B0
:104550007FFE002000F07CFE102000F079FE40205D
:1045600000F076FE812000F073FEFF2000F070FE68
:10457000A12000F06DFEA62000F06AFEA82000F049
:1045800067FE3F2000F064FEA42000F061FED3200F
:1045900000F05EFE002000F05BFED52000F058FE2B
:1045A000F02000F055FED92000F052FE222000F04D
:1045B0004FFEDA2000F04CFE122000F049FEDB2016
:1045C00000F046FE202000F043FE8D2000F040FE6B
:1045D000142000F03DFEBDE81040AF2000F038BED2
:1045E00010B50446B031C8B200F032FE102040EAE7
:1045F000141000F02DFE04F00F00BDE8104040F054
:10460000010000F025BE70472DE9F041E82000F0E0
:1046100021FB40F2DC50FCF71BFE204C42F27A609A
:104620004FF47A7620603046FCF712FE4620FCF705
:104630004FFD3046FCF70CFE42F2F0353046256067
:10464000FCF706FE002000F005FB77003846FCF77B
:10465000FFFD13484FF448710078312804D0322808
:1046600007D0332805D101E0042000E00320FFF744
:1046700069FEC820FCF7ECFD42F694202060384625
:10468000FCF7E6FD2320FCF723FD3046FCF7E0FDB8
:1046900038462560BDE8F041FCF7DABD4C0000204B
:1046A000540000202DE9F041B42000F0D3FA4FF47B
:1046B0007A763046FCF7CCFD284C42F27A602060D6
:1046C0003046FCF7C5FD4620FCF702FD3046FCF7FE
:1046D000BFFD42F2F03530462560FCF7B9FD002001
:1046E00000F0B8FA1E4A4FF448714FF42F60537827
:1046F000312B04D0322B0CD0332B13D126E012787F
:10470000322A02D0332A0DD101E0042008E001460C
:10471000FBE71078312802D0332803D1F5E70320D6
:10472000FFF710FE42F694204FF4FA6720603846F7
:10473000FCF78EFD2320FCF7CBFC3046FCF788FD10
:1047400038462560BDE8F041FCF782BD1278312A79
:1047500002D0322AE6D1E2E70146E0E74C00002031
:10476000540000202DE9F041912000F073FA4FF43D
:104770007A763046FCF76CFD284C42F27A60206075
:104780003046FCF765FD4620FCF7A2FC3046FCF7FE
:104790005FFD42F2F03530462560FCF759FD002000
:1047A00000F058FA1E4A4FF448714FF42F60937886
:1047B000312B04D0322B0CD0332B13D126E052787E
:1047C000322A02D0332A0DD101E0042008E001464C
:1047D000FBE75078312802D0332803D1F5E70320D6
:1047E000FFF7B0FD42F694204FF4FA672060384698
:1047F000FCF72EFD0020FCF76BFC3046FCF728FD93
:1048000038462560BDE8F041FCF722BD5278312AD8
:1048100002D0322AE6D1E2E70146E0E74C00002070
:10482000540000202DE9F041E82000F013FA40F296
:10483000DC50FCF70DFD204C42F27A604FF47A76A2
:1048400020603046FCF704FD4620FCF741FC304672
:10485000FCF7FEFC42F2F03530462560FCF7F8FC30
:10486000002000F0F7F915484FF44871007831281E
:1048700004D0322807D0332805D101E0042000E01D
:104880000320FFF75FFD40F2EE210120FFF75AFD04
:1048900042F694204FF4FA6720603846FCF7D8FCC3
:1048A0002320FCF715FC3046FCF7D2FC3846256087
:1048B000BDE8F041FCF7CCBC4C00002054000020C7
:1048C0002DE9F041B42000F0C5F94FF47A76304676
:1048D000FCF7BEFC284C42F27A6020603046FCF7C0
:1048E000B7FC4620FCF7F4FB3046FCF7B1FC42F283
:1048F000F03530462560FCF7ABFC002000F0AAF94B
:104900001E4A4FF448714FF42F605378312B04D076
:10491000322B0CD0332B13D126E01278322A02D05E
:10492000332A0DD101E0042008E00146FBE71078AE
:10493000312802D0332803D1F5E70320FFF702FD29
:1049400042F694204FF4FA6720603846FCF780FC6A
:104950002320FCF7BDFB3046FCF77AFC3846256087
:10496000BDE8F041FCF774BC1278312A02D0322A3B
:10497000E6D1E2E70146E0E74C00002054000020C9
:1049800070B5912000F066F94FF47A752846FCF76F
:104990005FFC284C42F27A6020602846FCF758FC05
:1049A0004620FCF795FB2846FCF752FC42F2F03615
:1049B00028462660FCF74CFC002000F04BF91E4A0C
:1049C0004FF448714FF42F609378312B04D0322B81
:1049D0000CD0332B13D125E05278322A02D0332A5F
:1049E0000DD101E0042008E00146FBE750783128B2
:1049F00002D0332803D1F5E70320FFF7A3FC42F6EA
:104A0000942020604FF4FA60FCF722FC0020FCF7B1
:104A10005FFB2846FCF71CFC28462660BDE870407A
:104A2000FCF716BC5278312A02D0322AE7D1E3E7EC
:104A30000146E1E74C000020540000202DE9F04140
:104A4000E82000F007F940F2DC50FCF701FC204CB4
:104A500042F27A604FF47A7620603046FCF7F8FB39
:104A60004620FCF735FB3046FCF7F2FB42F2F0350E
:104A700030462560FCF7ECFB002000F0EBF8154811
:104A80004FF448710078312804D0322807D03328F9
:104A900005D101E0042000E00320FFF753FC40F2C1
:104AA0006C710120FFF74EFC42F63C004FF4FA67B0
:104AB00020603846FCF7CCFB2320FCF709FB30468E
:104AC000FCF7C6FB38462560BDE8F041FCF7C0BBEB
:104AD0004C000020540000202DE9F041B42000F0EB
:104AE000B9F84FF47A763046FCF7B2FB284C42F224
:104AF0007A6020603046FCF7ABFB4620FCF7E8FA12
:104B00003046FCF7A5FB42F2F03530462560FCF755
:104B10009FFB002000F09EF81E4A4FF448714FF4AE
:104B20002F605378312B04D0322B0CD0332B13D180
:104B300026E01278322A02D0332A0DD101E0042077
:104B400008E00146FBE71078312802D0332803D172
:104B5000F5E70320FFF7F6FB42F63C004FF4FA6757
:104B600020603846FCF774FB2320FCF7B1FA30468E
:104B7000FCF76EFB38462560BDE8F041FCF768BBEA
:104B80001278312A02D0322AE6D1E2E70146E0E784
:104B90004C0000205400002070B5912000F05AF81D
:104BA0004FF47A752846FCF753FB284C42F27A60A2
:104BB00020602846FCF74CFB4620FCF789FA284683
:104BC000FCF746FB42F2F03628462660FCF740FB35
:104BD000002000F03FF81E4A4FF448714FF42F6058
:104BE0009378312B04D0322B0CD0332B13D124E00B
:104BF0005278322A02D0332A0DD101E0042008E095
:104C00000146FBE75078312802D0332803D1F5E77D
:104C10000320FFF797FB42F63C0020602846FCF794
:104C200017FB0020FCF754FA2846FCF711FB284636
:104C30002660BDE87040FCF70BBB5278312A02D0E9
:104C4000322AE8D1E4E70146E2E700004C00002008
:104C50005400002010B5FBF79FFC084A084BFBF7F7
:104C600020FC0022074BFBF775FBFBF7CFFCFBF7A3
:104C7000B9FC054980B20968886310BD1CC7711C66
:104C8000C771AC3F00001440581A00207047000064
:104C900010B50648FDF7E8F900210448FEF736F99B
:104CA000BDE8104004210148FEF730B9581A002031
:104CB0002DE9F047224C451A6069FBF764FC8046F9
:104CC00020690746FBF75FFC0121FBF737FB06462F
:104CD0002846FBF758FC81463146FBF7B9FA4146B6
:104CE000FBF764FAA168FBF7B9FA804648466168A9
:104CF000FBF7B4FA0646E81BFBF745FC2168FBF717
:104D0000ADFA3146FBF752FA4146FBF74FFA4FF046
:104D10007E51FBF74BFAFBF74CFCA061E1690844BC
:104D2000E061C4E90457192802DD1920E06104E0BC
:104D30006FF01801884200DAE161E069BDE8F087B0
:104D400004000020FCF72CBD30B58FB02821684648
:104D5000FBF721FA14210AA8FBF71DFA0121080428
:104D6000CDE900100024029402250491CDE90750FA
:104D70004FF4E01009906846FCF79AFE0F20CDE949
:104D80000A056802CDE90C4002210AA80E94FCF73E
:104D9000A3FD0FB030BD70470148FDF709BB00000F
:104DA000101A00200148FDF703BB0000E81A00209C
:104DB000F0B502681C4B1D4D1D4E1E4F1E4C4FF092
:104DC000804C984209D0A04207D0604505D0A84247
:104DD00003D0B04201D0B84204D122F0700E4A682C
:104DE00042EA0E02984209D0A04207D0604505D0A1
:104DF000A84203D0B04201D0B84203D122F440759A
:104E0000CA682A434D6922F080022A4302608A68F8
:104E1000C2620A688262984201D0A04201D1096947
:104E2000016301214161F0BD002C014000040040FC
:104E300000080040000C00400034014010B501F0B3
:104E40001F030121046A99408C430462016A9A405D
:104E50001143016210BD10B501F01F030421046A63
:104E600099408C430462016A9A401143016210BD6B
:104E700010B5846842EA032224F47F440A432243A3
:104E8000826010BD826822F070020A4342F007017E
:104E900081607047F0B5026A22F001020262036A83
:104EA00042688469124E24F073050C682C4323F089
:104EB00002058B682B430D4DA84201D0B04205D1AD
:104EC00023F00807CB683B4323F00403A84201D03A
:104ED000B04205D14D6922F4407215438A692A43D4
:104EE00042608461496841630362F0BD002C014067
:104EF00000340140F0B5026A22F010020262026A38
:104F0000436884690D6824F4E64444EA05248D6806
:104F100022F0200242EA05120F4D104EA84201D0A5
:104F2000B04206D1CF6822F0800242EA071222F096
:104F30004002A84201D0B04207D14D6923F440633A
:104F400043EA85038D6943EA8503436084614968C8
:104F500081630262F0BD0000002C0140003401407A
:104F6000F0B5026A22F480720262026A4368C46980
:104F700022F4007224F073050C68124E2C438D68E5
:104F800042EA05220E4DA84201D0B04206D1CF68B8
:104F900022F4006242EA072222F48062A84201D091
:104FA000B04207D14D6923F4405343EA05138D699C
:104FB00043EA05134360C4614968C1630262F0BDFE
:104FC000002C01400034014030B5026A22F48052C6
:104FD0000262046A4268C3690D6823F4E64343EA47
:104FE00005238D6824F4005444EA0534084DA84292
:104FF00002D0084DA84204D14D6922F4804242EA11
:1050000085124260C36149680164046230BD0000DA
:10501000002C01400034014010B5036A046A24F0FA
:1050200001040462846924F0F00444EA021423F0C9
:105030000A020A438461026210BD10B5036A23F0BC
:10504000100303628369046A23F4704343EA023263
:1050500024F0A00343EA01118261016210BD10B582
:10506000406A0021C185C184FEF7C5FA10BD016800
:10507000CA6822F49072CA6001684A6922F001028B
:105080004A61202180F83A10704710B590F83A1024
:10509000222901D0022010BD82684FF480539A4229
:1050A00001D1016921B1816A9A421BD04AB10AE05B
:1050B0000268816A5268C2F308020A80816A891C08
:1050C00008E0026972B10268526802F07F020A7059
:1050D000816A491C8162C18D491E0904090CC18580
:1050E00003D016E002685268F1E70168CA6822F04E
:1050F0002002CA600168CA6822F48072CA6001682E
:105100004A6922F001024A61202180F83A10FEF734
:105110001DFC002010BD000070B504460068016948
:10512000E26821F44051114301612169A0680843FC
:10513000616908432168CA6841F20C639A430243DB
:10514000CA6020684169A26921F44071114341613C
:105150001E492068884202D1FCF764FC01E0FCF79C
:1051600051FC00EBC00101EB00126068642180007B
:10517000B2FBF0F3B3FBF1F36FF018067343B2FB2D
:10518000F0F5B2FBF0F605EB8305322303EB0515D2
:10519000B5FBF1F5B6FBF1F605F0F00505EB0615EC
:1051A000B2FBF0F6B2FBF0F0B0FBF1F06FF01802DA
:1051B000504306EB800003EB0010B0FBF1F02168D8
:1051C00000F00F002844886070BD000000380140E6
:1051D0002DE9F041984617460E460446069D1DE00F
:1051E000681C1BD02DB1FCF74BF9A0EB0800A842BE
:1051F00014D92068C16821F4D071C1602068416968
:1052000021F001014161202084F8390084F83A003E
:10521000002084F838000320BDE8F0812068006891
:1052200036EA000004D00020B842D9D00020F3E7CD
:105230000120F9E70148FEF7DFB90000701B0020EC
:105240000148FEF7D9B90000B01B0020FEE70000BE
:1052500001B584B00121642204A88DE807000B4643
:10526000002278210248FCF7D5F905B000BD000006
:105270007419002001B584B00121642204A88DE8CE
:1052800007000B46402278210248FCF7C3F905B01D
:1052900000BD0000741900200FB4054B10B503A920
:1052A000044A029800F010F910BC5DF814FB0000ED
:1052B000695D0008BC0100204100080218BF0420FD
:1052C0000A0E18BF40F001004FF07F4232EA0101A0
:1052D00008BF40F00200012808BF052070470907F9
:1052E000090E002804DB00F1E02080F8001470476C
:1052F00000F00F0000F1E02080F8141D704701213C
:10530000FBF71CB861214FF0E040FBF717B86FF0D6
:105310005E010807FBF712B802E008C8121F08C1B7
:10532000002AFAD170477047002001E001C1121F26
:10533000002AFBD170470000014908607047000057
:10534000C00100202DE9FF5F82B00021DDE90430BB
:10535000020DDDF840B0034318D044F61050A2F21D
:10536000FF3242431514119801281FD0A5EB0B0002
:10537000401C5FEA000A4FF000064E4FDFF83891FC
:10538000B046504615D5CAF1000413E01198012427
:105390004AA3012801D16FEA0B010298119AC0E9D2
:1053A0000031C0E9024206B0BDE8F09FCBF1000039
:1053B000DFE704460021404A491842EB0450CDE99A
:1053C000001012E0E00707D032463B46404649460F
:1053D000FBF767F88046894632463B461046194639
:1053E000FBF75FF806460F466410002CEAD1DDE9B2
:1053F0000401DDE90023BAF1000F06DAFBF751F8EA
:1054000042464B46FBF74DF805E0FBF73FFA4246B4
:105410004B46FBF73BFA04460E460022284BFBF7AF
:10542000BDFA03D84FF0FF30014607E00022254BBC
:1054300020463146FAF78EFFFBF797FA102409E071
:10544000002C0ADB0A220023FBF71CF9039B3032F5
:105450001A55641E50EA0102F2D1641C039AC4F189
:1054600011031444119A012A03D0012208430DD1DB
:105470000AE0084304D000204FF0110B119072E7AE
:10548000A3EB0B056D1E0DE05B4504DD4FF0000244
:1054900005F1010504E003DA4FF00002A5F1010572
:1054A000002AECD002981199C0E90231C0E9004508
:1054B00079E70000000014400000F03F30000000D9
:1054C0000000F0430000E03F2DE9FF4F95B09B4600
:1054D0008946064600250FE2252877D10024274675
:1054E000F84A0121059400E0044316F8013F203BEF
:1054F00001FA03F01042F7D130782A2811D06FF06A
:105500002F033078A0F13002092A16D8059A44F00A
:10551000020402EB820203EB42021044761C059067
:10552000EFE759F8042B0592002A03DA504244F4BD
:105530000054059044F00204761C30782E2816D1D1
:1055400016F8010F44F004042A280DD06FF02F0242
:105550003078A0F13003092B09D807EB870302EB61
:105560004303C718761CF3E759F8047B761C3078A0
:105570006C280FD006DC4C2817D068280DD06A287C
:1055800014D104E0742810D07A280FD10DE044F42F
:1055900000140AE044F4801401E044F440147278EA
:1055A000824202D104F58014761C761C307866287D
:1055B0000BD013DC582877D009DC002875D045289B
:1055C000F6D04628F4D047281AD19DE118E0632888
:1055D00035D0642879D0652812D195E1702873D030
:1055E00008DC6728F1D069286FD06E280DD06F28AD
:1055F00006D1B5E073282CD0752875D0782874D0E2
:105600005A46179990476D1C75E1C4F30250022861
:1056100009D003280DD0D9F8001004280DD00D6052
:1056200009F1040967E1D9F80010EA17C1E900524D
:10563000F6E7D9F800100D80F2E70D70F0E719F8E1
:10564000041B8DF8001000208DF80100EA460120AF
:1056500003E059F804AB4FF0FF3061074FF0000151
:1056600002D40DE008F101018846B9420FDA804505
:10567000F8DB1AF808100029F4D108E008F101015C
:1056800088468142FADB1AF808100029F6D10598FD
:105690005B46A0EB080721463846179A00F094FABB
:1056A000284400EB080507E04DE029E10DE01AF879
:1056B000010B5A4617999047B8F10108F7D25B469B
:1056C00021463846179A13E142E00A220092C4F3B9
:1056D00002524FF0000A022A08D059F804CB032ADC
:1056E0004FEAEC710AD00DE029E02AE009F1070148
:1056F00021F00702F2E802C1914609E00FFA8CFCA2
:105700004FEAEC71042A03D14FFA8CFC4FEAEC719A
:10571000002907DA0A460021DCF1000C61EB0201E6
:105720002D2202E0220504D52B228DF8042001222F
:1057300003E0E20701D02022F7E7904659E00A2172
:1057400002E010220DE010214FF0000A00910BE062
:1057500010224FF0000A44F004040827009203E0EE
:1057600008224FF0000A0092C4F30252022A05D028
:1057700059F804CB0021032A08D009E009F10701F8
:1057800021F00702F2E802C1914605E01FFA8CFC05
:10579000042A01D10CF0FF0C4FF00008220728D595
:1057A000702806D0009B83F0100353EA0A0305D04B
:1057B0000EE040228DF80420012208E05CEA01029C
:1057C00006D030228DF804208DF805000222904684
:1057D000009B83F0080353EA0A030AD15CEA010242
:1057E00001D1620705D530228DF804204FF0010861
:1057F0007F1E582804D034A003900EA802900DE01C
:1058000036A0F9E753466046009AFAF73BFF844614
:105810000398825C0298401E029002705CEA0100CC
:10582000F0D1029806A9081A00F1200A600702D5F3
:1058300024F4803400E00127574502DDA7EB0A007D
:1058400000E0002000EB0A01009005984144401A56
:105850000590E00306D45B462146179A059800F0B0
:10586000B3F90544002706E001A85A46C05D179920
:1058700090476D1C7F1C4745F6DBE0030CD55B466B
:105880002146179A059800F09FF9054404E030205E
:105890005A46179990476D1C0099481E00900029A0
:1058A000F5DC08E0029802995A460078491C0291FA
:1058B000179990476D1CBAF10001AAF1010AF1DCB9
:1058C00065E10000092801003031323334353637C4
:1058D000383961626364656600000000303132333C
:1058E00034353637383941424344454600000000DC
:1058F00000F058F90544761C307800287FF4ECADB0
:1059000019B02846BDE8F08F620700D4062709F1D8
:10591000070222F0070CFCE80223E14603F00048EE
:105920005FEA080C02D00FF2702C0DE05FEA045C15
:1059300002D50FF2682C07E05FEAC47C02D00FF2B8
:10594000602C01E0AFF2700C4FF0FF3823F0004301
:10595000CDF850C065280CD006DC452809D0462873
:105960001DD047283DD13DE0662818D067287ED15C
:1059700038E00021112F01DB112000E0781CCDE977
:10598000000106A90EA8FFF7DDFCDDE90F010E9A64
:1059900003910021009207F1010A04914DE04FF0BC
:1059A00000400097CDE9011006A90EA8FFF7CAFC38
:1059B000DDE90F0203920E9B11990022DDF80CA085
:1059C0000093049211B9791C00EB010AB7EB0A00AD
:1059D00004D4C0F1FF3007F1010A0490AAEB0700DC
:1059E000019044E0012F00DA01270021112F01DD91
:1059F000112000E03846CDE9000106A90EA8FFF706
:105A0000A1FCDDE90F010E9A03910021049100929F
:105A1000BA4621070CD40399514500DA8A46BAF1F7
:105A2000010F05DD009AAAF10101515C302908D06F
:105A3000B84202DA10F1040F06DA0121CDE90110B3
:105A400015E0AAF10101E9E7002805DC0499014409
:105A50000491AAEB000102E0411C514500DD8A4699
:105A60000499401A401C01904FF00040029020071A
:105A700004D40198504501DBCDF8048000208DF856
:105A80004F0002980DF14F07B0F1004F25D02B20A9
:105A90000E9002984FF0020800280CDA4042029063
:105AA0002D200E9007E00A210298FAF7D5FD30313B
:105AB000029007F8011DB8F10001A8F10108F2DC1D
:105AC00002980028EFD1791E0E980870307800F007
:105AD000200040F0450007F8020D12A8C01B00F19D
